{
  "contractName": "MyToken",
  "abi": [
    {
      "inputs": [
        {
          "internalType": "string",
          "name": "name",
          "type": "string"
        },
        {
          "internalType": "string",
          "name": "symbol",
          "type": "string"
        },
        {
          "internalType": "uint256",
          "name": "initialSupply",
          "type": "uint256"
        },
        {
          "internalType": "uint256",
          "name": "maxSupply",
          "type": "uint256"
        },
        {
          "internalType": "uint256",
          "name": "transactionFeePercentage",
          "type": "uint256"
        },
        {
          "internalType": "uint256",
          "name": "tokensBurntPercentage",
          "type": "uint256"
        },
        {
          "internalType": "address",
          "name": "projectFeeAddress",
          "type": "address"
        }
      ],
      "stateMutability": "nonpayable",
      "type": "constructor"
    },
    {
      "anonymous": false,
      "inputs": [
        {
          "indexed": true,
          "internalType": "address",
          "name": "owner",
          "type": "address"
        },
        {
          "indexed": true,
          "internalType": "address",
          "name": "spender",
          "type": "address"
        },
        {
          "indexed": false,
          "internalType": "uint256",
          "name": "value",
          "type": "uint256"
        }
      ],
      "name": "Approval",
      "type": "event"
    },
    {
      "anonymous": false,
      "inputs": [
        {
          "indexed": true,
          "internalType": "address",
          "name": "previousOwner",
          "type": "address"
        },
        {
          "indexed": true,
          "internalType": "address",
          "name": "newOwner",
          "type": "address"
        }
      ],
      "name": "OwnershipTransferred",
      "type": "event"
    },
    {
      "anonymous": false,
      "inputs": [
        {
          "indexed": true,
          "internalType": "address",
          "name": "previousAddress",
          "type": "address"
        },
        {
          "indexed": true,
          "internalType": "address",
          "name": "newAddress",
          "type": "address"
        }
      ],
      "name": "ProjectFeeAddressChanged",
      "type": "event"
    },
    {
      "anonymous": false,
      "inputs": [
        {
          "indexed": true,
          "internalType": "address",
          "name": "from",
          "type": "address"
        },
        {
          "indexed": false,
          "internalType": "uint256",
          "name": "amount",
          "type": "uint256"
        }
      ],
      "name": "TokensBurnt",
      "type": "event"
    },
    {
      "anonymous": false,
      "inputs": [
        {
          "indexed": false,
          "internalType": "uint256",
          "name": "previousPercentage",
          "type": "uint256"
        },
        {
          "indexed": false,
          "internalType": "uint256",
          "name": "newPercentage",
          "type": "uint256"
        }
      ],
      "name": "TokensBurntPercentageChanged",
      "type": "event"
    },
    {
      "anonymous": false,
      "inputs": [
        {
          "indexed": true,
          "internalType": "address",
          "name": "to",
          "type": "address"
        },
        {
          "indexed": false,
          "internalType": "uint256",
          "name": "amount",
          "type": "uint256"
        }
      ],
      "name": "TokensMinted",
      "type": "event"
    },
    {
      "anonymous": false,
      "inputs": [
        {
          "indexed": false,
          "internalType": "uint256",
          "name": "previousPercentage",
          "type": "uint256"
        },
        {
          "indexed": false,
          "internalType": "uint256",
          "name": "newPercentage",
          "type": "uint256"
        }
      ],
      "name": "TransactionFeePercentageChanged",
      "type": "event"
    },
    {
      "anonymous": false,
      "inputs": [
        {
          "indexed": true,
          "internalType": "address",
          "name": "from",
          "type": "address"
        },
        {
          "indexed": true,
          "internalType": "address",
          "name": "to",
          "type": "address"
        },
        {
          "indexed": false,
          "internalType": "uint256",
          "name": "value",
          "type": "uint256"
        }
      ],
      "name": "Transfer",
      "type": "event"
    },
    {
      "inputs": [
        {
          "internalType": "address",
          "name": "owner",
          "type": "address"
        },
        {
          "internalType": "address",
          "name": "spender",
          "type": "address"
        }
      ],
      "name": "allowance",
      "outputs": [
        {
          "internalType": "uint256",
          "name": "",
          "type": "uint256"
        }
      ],
      "stateMutability": "view",
      "type": "function",
      "constant": true
    },
    {
      "inputs": [
        {
          "internalType": "address",
          "name": "spender",
          "type": "address"
        },
        {
          "internalType": "uint256",
          "name": "amount",
          "type": "uint256"
        }
      ],
      "name": "approve",
      "outputs": [
        {
          "internalType": "bool",
          "name": "",
          "type": "bool"
        }
      ],
      "stateMutability": "nonpayable",
      "type": "function"
    },
    {
      "inputs": [
        {
          "internalType": "address",
          "name": "account",
          "type": "address"
        }
      ],
      "name": "balanceOf",
      "outputs": [
        {
          "internalType": "uint256",
          "name": "",
          "type": "uint256"
        }
      ],
      "stateMutability": "view",
      "type": "function",
      "constant": true
    },
    {
      "inputs": [],
      "name": "decimals",
      "outputs": [
        {
          "internalType": "uint8",
          "name": "",
          "type": "uint8"
        }
      ],
      "stateMutability": "view",
      "type": "function",
      "constant": true
    },
    {
      "inputs": [
        {
          "internalType": "address",
          "name": "spender",
          "type": "address"
        },
        {
          "internalType": "uint256",
          "name": "subtractedValue",
          "type": "uint256"
        }
      ],
      "name": "decreaseAllowance",
      "outputs": [
        {
          "internalType": "bool",
          "name": "",
          "type": "bool"
        }
      ],
      "stateMutability": "nonpayable",
      "type": "function"
    },
    {
      "inputs": [
        {
          "internalType": "address",
          "name": "spender",
          "type": "address"
        },
        {
          "internalType": "uint256",
          "name": "addedValue",
          "type": "uint256"
        }
      ],
      "name": "increaseAllowance",
      "outputs": [
        {
          "internalType": "bool",
          "name": "",
          "type": "bool"
        }
      ],
      "stateMutability": "nonpayable",
      "type": "function"
    },
    {
      "inputs": [],
      "name": "name",
      "outputs": [
        {
          "internalType": "string",
          "name": "",
          "type": "string"
        }
      ],
      "stateMutability": "view",
      "type": "function",
      "constant": true
    },
    {
      "inputs": [],
      "name": "owner",
      "outputs": [
        {
          "internalType": "address",
          "name": "",
          "type": "address"
        }
      ],
      "stateMutability": "view",
      "type": "function",
      "constant": true
    },
    {
      "inputs": [],
      "name": "renounceOwnership",
      "outputs": [],
      "stateMutability": "nonpayable",
      "type": "function"
    },
    {
      "inputs": [],
      "name": "symbol",
      "outputs": [
        {
          "internalType": "string",
          "name": "",
          "type": "string"
        }
      ],
      "stateMutability": "view",
      "type": "function",
      "constant": true
    },
    {
      "inputs": [],
      "name": "totalSupply",
      "outputs": [
        {
          "internalType": "uint256",
          "name": "",
          "type": "uint256"
        }
      ],
      "stateMutability": "view",
      "type": "function",
      "constant": true
    },
    {
      "inputs": [
        {
          "internalType": "address",
          "name": "from",
          "type": "address"
        },
        {
          "internalType": "address",
          "name": "to",
          "type": "address"
        },
        {
          "internalType": "uint256",
          "name": "amount",
          "type": "uint256"
        }
      ],
      "name": "transferFrom",
      "outputs": [
        {
          "internalType": "bool",
          "name": "",
          "type": "bool"
        }
      ],
      "stateMutability": "nonpayable",
      "type": "function"
    },
    {
      "inputs": [
        {
          "internalType": "address",
          "name": "newOwner",
          "type": "address"
        }
      ],
      "name": "transferOwnership",
      "outputs": [],
      "stateMutability": "nonpayable",
      "type": "function"
    },
    {
      "inputs": [
        {
          "internalType": "address",
          "name": "to",
          "type": "address"
        },
        {
          "internalType": "uint256",
          "name": "amount",
          "type": "uint256"
        }
      ],
      "name": "mint",
      "outputs": [],
      "stateMutability": "nonpayable",
      "type": "function"
    },
    {
      "inputs": [
        {
          "internalType": "uint256",
          "name": "amount",
          "type": "uint256"
        }
      ],
      "name": "burn",
      "outputs": [],
      "stateMutability": "nonpayable",
      "type": "function"
    },
    {
      "inputs": [],
      "name": "transactionFeePercentage",
      "outputs": [
        {
          "internalType": "uint256",
          "name": "",
          "type": "uint256"
        }
      ],
      "stateMutability": "view",
      "type": "function",
      "constant": true
    },
    {
      "inputs": [],
      "name": "tokensBurntPercentage",
      "outputs": [
        {
          "internalType": "uint256",
          "name": "",
          "type": "uint256"
        }
      ],
      "stateMutability": "view",
      "type": "function",
      "constant": true
    },
    {
      "inputs": [],
      "name": "projectFeeAddress",
      "outputs": [
        {
          "internalType": "address",
          "name": "",
          "type": "address"
        }
      ],
      "stateMutability": "view",
      "type": "function",
      "constant": true
    },
    {
      "inputs": [
        {
          "internalType": "address",
          "name": "newAddress",
          "type": "address"
        }
      ],
      "name": "changeProjectFeeAddress",
      "outputs": [],
      "stateMutability": "nonpayable",
      "type": "function"
    },
    {
      "inputs": [
        {
          "internalType": "uint256",
          "name": "newPercentage",
          "type": "uint256"
        }
      ],
      "name": "changeTransactionFeePercentage",
      "outputs": [],
      "stateMutability": "nonpayable",
      "type": "function"
    },
    {
      "inputs": [
        {
          "internalType": "uint256",
          "name": "newPercentage",
          "type": "uint256"
        }
      ],
      "name": "changeTokensBurntPercentage",
      "outputs": [],
      "stateMutability": "nonpayable",
      "type": "function"
    },
    {
      "inputs": [
        {
          "internalType": "address",
          "name": "to",
          "type": "address"
        },
        {
          "internalType": "uint256",
          "name": "amount",
          "type": "uint256"
        }
      ],
      "name": "transfer",
      "outputs": [
        {
          "internalType": "bool",
          "name": "",
          "type": "bool"
        }
      ],
      "stateMutability": "nonpayable",
      "type": "function"
    },
    {
      "inputs": [],
      "name": "maxSupply",
      "outputs": [
        {
          "internalType": "uint256",
          "name": "",
          "type": "uint256"
        }
      ],
      "stateMutability": "view",
      "type": "function",
      "constant": true
    },
    {
      "inputs": [],
      "name": "totalBurnt",
      "outputs": [
        {
          "internalType": "uint256",
          "name": "",
          "type": "uint256"
        }
      ],
      "stateMutability": "view",
      "type": "function",
      "constant": true
    }
  ],
  "bytecode": "0x60806040523480156200001157600080fd5b5060405162002d1138038062002d118339818101604052810190620000379190620004de565b86868160039080519060200190620000519291906200038e565b5080600490805190602001906200006a9291906200038e565b5050506200008d620000816200014860201b60201c565b6200015060201b60201c565b83851115620000d3576040517f08c379a0000000000000000000000000000000000000000000000000000000008152600401620000ca9062000678565b60405180910390fd5b83600681905550826008819055508160098190555080600a60006101000a81548173ffffffffffffffffffffffffffffffffffffffff021916908373ffffffffffffffffffffffffffffffffffffffff1602179055506200013b33866200021660201b60201c565b5050505050505062000919565b600033905090565b6000600560009054906101000a900473ffffffffffffffffffffffffffffffffffffffff16905081600560006101000a81548173ffffffffffffffffffffffffffffffffffffffff021916908373ffffffffffffffffffffffffffffffffffffffff1602179055508173ffffffffffffffffffffffffffffffffffffffff168173ffffffffffffffffffffffffffffffffffffffff167f8be0079c531659141344cd1fd0a4f28419497f9722a3daafe3b4186f6b6457e060405160405180910390a35050565b600073ffffffffffffffffffffffffffffffffffffffff168273ffffffffffffffffffffffffffffffffffffffff16141562000289576040517f08c379a000000000000000000000000000000000000000000000000000000000815260040162000280906200069a565b60405180910390fd5b6200029d600083836200038460201b60201c565b8060026000828254620002b1919062000751565b92505081905550806000808473ffffffffffffffffffffffffffffffffffffffff1673ffffffffffffffffffffffffffffffffffffffff168152602001908152602001600020600082825401925050819055508173ffffffffffffffffffffffffffffffffffffffff16600073ffffffffffffffffffffffffffffffffffffffff167fddf252ad1be2c89b69c2b068fc378daa952ba7f163c4a11628f55a4df523b3ef83604051620003649190620006bc565b60405180910390a362000380600083836200038960201b60201c565b5050565b505050565b505050565b8280546200039c9062000822565b90600052602060002090601f016020900481019282620003c057600085556200040c565b82601f10620003db57805160ff19168380011785556200040c565b828001600101855582156200040c579182015b828111156200040b578251825591602001919060010190620003ee565b5b5090506200041b91906200041f565b5090565b5b808211156200043a57600081600090555060010162000420565b5090565b6000620004556200044f846200070d565b620006d9565b9050828152602081018484840111156200046e57600080fd5b6200047b848285620007ec565b509392505050565b6000815190506200049481620008e5565b92915050565b600082601f830112620004ac57600080fd5b8151620004be8482602086016200043e565b91505092915050565b600081519050620004d881620008ff565b92915050565b600080600080600080600060e0888a031215620004fa57600080fd5b600088015167ffffffffffffffff8111156200051557600080fd5b620005238a828b016200049a565b975050602088015167ffffffffffffffff8111156200054157600080fd5b6200054f8a828b016200049a565b9650506040620005628a828b01620004c7565b9550506060620005758a828b01620004c7565b9450506080620005888a828b01620004c7565b93505060a06200059b8a828b01620004c7565b92505060c0620005ae8a828b0162000483565b91505092959891949750929550565b6000620005cc60278362000740565b91507f496e697469616c20737570706c792063616e6e6f7420657863656564206d617860008301527f20737570706c79000000000000000000000000000000000000000000000000006020830152604082019050919050565b600062000634601f8362000740565b91507f45524332303a206d696e7420746f20746865207a65726f2061646472657373006000830152602082019050919050565b6200067281620007e2565b82525050565b600060208201905081810360008301526200069381620005bd565b9050919050565b60006020820190508181036000830152620006b58162000625565b9050919050565b6000602082019050620006d3600083018462000667565b92915050565b6000604051905081810181811067ffffffffffffffff82111715620007035762000702620008b6565b5b8060405250919050565b600067ffffffffffffffff8211156200072b576200072a620008b6565b5b601f19601f8301169050602081019050919050565b600082825260208201905092915050565b60006200075e82620007e2565b91506200076b83620007e2565b9250827fffffffffffffffffffffffffffffffffffffffffffffffffffffffffffffffff03821115620007a357620007a262000858565b5b828201905092915050565b6000620007bb82620007c2565b9050919050565b600073ffffffffffffffffffffffffffffffffffffffff82169050919050565b6000819050919050565b60005b838110156200080c578082015181840152602081019050620007ef565b838111156200081c576000848401525b50505050565b600060028204905060018216806200083b57607f821691505b6020821081141562000852576200085162000887565b5b50919050565b7f4e487b7100000000000000000000000000000000000000000000000000000000600052601160045260246000fd5b7f4e487b7100000000000000000000000000000000000000000000000000000000600052602260045260246000fd5b7f4e487b7100000000000000000000000000000000000000000000000000000000600052604160045260246000fd5b620008f081620007ae565b8114620008fc57600080fd5b50565b6200090a81620007e2565b81146200091657600080fd5b50565b6123e880620009296000396000f3fe608060405234801561001057600080fd5b50600436106101585760003560e01c80638da5cb5b116100c3578063c94295e71161007c578063c94295e7146103cb578063ce90b7a2146103e7578063d5abeb0114610403578063dd62ed3e14610421578063e99861db14610451578063f2fde38b1461046f57610158565b80638da5cb5b146102f3578063924d6d301461031157806395d89b411461032f578063966ff6501461034d578063a457c2d71461036b578063a9059cbb1461039b57610158565b80633950935111610115578063395093511461023557806340a5a05a1461026557806340c10f191461028157806342966c681461029d57806370a08231146102b9578063715018a6146102e957610158565b806306fdde031461015d578063095ea7b31461017b57806311e44cc2146101ab57806318160ddd146101c957806323b872dd146101e7578063313ce56714610217575b600080fd5b61016561048b565b6040516101729190611e7a565b60405180910390f35b6101956004803603810190610190919061177c565b61051d565b6040516101a29190611e5f565b60405180910390f35b6101b3610540565b6040516101c0919061209c565b60405180910390f35b6101d161054a565b6040516101de919061209c565b60405180910390f35b61020160048036038101906101fc919061172d565b610554565b60405161020e9190611e5f565b60405180910390f35b61021f610583565b60405161022c91906120e0565b60405180910390f35b61024f600480360381019061024a919061177c565b61058c565b60405161025c9190611e5f565b60405180910390f35b61027f600480360381019061027a91906117b8565b6105c3565b005b61029b6004803603810190610296919061177c565b610654565b005b6102b760048036038101906102b291906117b8565b61070f565b005b6102d360048036038101906102ce91906116c8565b610783565b6040516102e0919061209c565b60405180910390f35b6102f16107cb565b005b6102fb6107df565b6040516103089190611e44565b60405180910390f35b610319610809565b6040516103269190611e44565b60405180910390f35b610337610833565b6040516103449190611e7a565b60405180910390f35b6103556108c5565b604051610362919061209c565b60405180910390f35b6103856004803603810190610380919061177c565b6108cf565b6040516103929190611e5f565b60405180910390f35b6103b560048036038101906103b0919061177c565b610946565b6040516103c29190611e5f565b60405180910390f35b6103e560048036038101906103e091906117b8565b610a6c565b005b61040160048036038101906103fc91906116c8565b610afd565b005b61040b610c35565b604051610418919061209c565b60405180910390f35b61043b600480360381019061043691906116f1565b610c3f565b604051610448919061209c565b60405180910390f35b610459610cc6565b604051610466919061209c565b60405180910390f35b610489600480360381019061048491906116c8565b610cd0565b005b60606003805461049a906122b4565b80601f01602080910402602001604051908101604052809291908181526020018280546104c6906122b4565b80156105135780601f106104e857610100808354040283529160200191610513565b820191906000526020600020905b8154815290600101906020018083116104f657829003601f168201915b5050505050905090565b600080610528610d54565b9050610535818585610d5c565b600191505092915050565b6000600954905090565b6000600254905090565b60008061055f610d54565b905061056c858285610f27565b610577858585610fb3565b60019150509392505050565b60006012905090565b600080610597610d54565b90506105b88185856105a98589610c3f565b6105b39190612117565b610d5c565b600191505092915050565b6105cb61122b565b606481111561060f576040517f08c379a000000000000000000000000000000000000000000000000000000000815260040161060690611fdc565b60405180910390fd5b7f6fba1839096908b40ecd1b2959758e2221a09c3fc15ab2915cd628e0609cea2b600954826040516106429291906120b7565b60405180910390a18060098190555050565b61065c61122b565b6006548161066861054a565b6106729190612117565b11156106b3576040517f08c379a00000000000000000000000000000000000000000000000000000000081526004016106aa90611f5c565b60405180910390fd5b6106bd82826112a9565b8173ffffffffffffffffffffffffffffffffffffffff167f3f2c9d57c068687834f0de942a9babb9e5acab57d516d3480a3c16ee165a427382604051610703919061209c565b60405180910390a25050565b6107193382611400565b806007600082825461072b9190612117565b925050819055503373ffffffffffffffffffffffffffffffffffffffff167f22d306e0cdbeeb823d6327362b35337dc3125a6aa905b6a014da1b08a5389ba482604051610778919061209c565b60405180910390a250565b60008060008373ffffffffffffffffffffffffffffffffffffffff1673ffffffffffffffffffffffffffffffffffffffff168152602001908152602001600020549050919050565b6107d361122b565b6107dd60006115ce565b565b6000600560009054906101000a900473ffffffffffffffffffffffffffffffffffffffff16905090565b6000600a60009054906101000a900473ffffffffffffffffffffffffffffffffffffffff16905090565b606060048054610842906122b4565b80601f016020809104026020016040519081016040528092919081815260200182805461086e906122b4565b80156108bb5780601f10610890576101008083540402835291602001916108bb565b820191906000526020600020905b81548152906001019060200180831161089e57829003601f168201915b5050505050905090565b6000600754905090565b6000806108da610d54565b905060006108e88286610c3f565b90508381101561092d576040517f08c379a00000000000000000000000000000000000000000000000000000000081526004016109249061205c565b60405180910390fd5b61093a8286868403610d5c565b60019250505092915050565b600080606460085484610959919061219e565b610963919061216d565b90506000606460095485610977919061219e565b610981919061216d565b9050600081838661099291906121f8565b61099c91906121f8565b90506109d26109a9610d54565b600a60009054906101000a900473ffffffffffffffffffffffffffffffffffffffff1685610fb3565b6109e46109dd610d54565b8783610fb3565b6000821115610a5f576109f73383611400565b8160076000828254610a099190612117565b925050819055503373ffffffffffffffffffffffffffffffffffffffff167f22d306e0cdbeeb823d6327362b35337dc3125a6aa905b6a014da1b08a5389ba483604051610a56919061209c565b60405180910390a25b6001935050505092915050565b610a7461122b565b6064811115610ab8576040517f08c379a0000000000000000000000000000000000000000000000000000000008152600401610aaf9061203c565b60405180910390fd5b7f1bbf74e833116f0e6db59fa8d0fdd13f8ccd52308d95f75f45a16eea12751cbc60085482604051610aeb9291906120b7565b60405180910390a18060088190555050565b610b0561122b565b600073ffffffffffffffffffffffffffffffffffffffff168173ffffffffffffffffffffffffffffffffffffffff161415610b75576040517f08c379a0000000000000000000000000000000000000000000000000000000008152600401610b6c90611f9c565b60405180910390fd5b8073ffffffffffffffffffffffffffffffffffffffff16600a60009054906101000a900473ffffffffffffffffffffffffffffffffffffffff1673ffffffffffffffffffffffffffffffffffffffff167f783df29dd9e4d245aec5288e1648c0c861e3f47635dc67b866f5db8752a16ffd60405160405180910390a380600a60006101000a81548173ffffffffffffffffffffffffffffffffffffffff021916908373ffffffffffffffffffffffffffffffffffffffff16021790555050565b6000600654905090565b6000600160008473ffffffffffffffffffffffffffffffffffffffff1673ffffffffffffffffffffffffffffffffffffffff16815260200190815260200160002060008373ffffffffffffffffffffffffffffffffffffffff1673ffffffffffffffffffffffffffffffffffffffff16815260200190815260200160002054905092915050565b6000600854905090565b610cd861122b565b600073ffffffffffffffffffffffffffffffffffffffff168173ffffffffffffffffffffffffffffffffffffffff161415610d48576040517f08c379a0000000000000000000000000000000000000000000000000000000008152600401610d3f90611edc565b60405180910390fd5b610d51816115ce565b50565b600033905090565b600073ffffffffffffffffffffffffffffffffffffffff168373ffffffffffffffffffffffffffffffffffffffff161415610dcc576040517f08c379a0000000000000000000000000000000000000000000000000000000008152600401610dc39061201c565b60405180910390fd5b600073ffffffffffffffffffffffffffffffffffffffff168273ffffffffffffffffffffffffffffffffffffffff161415610e3c576040517f08c379a0000000000000000000000000000000000000000000000000000000008152600401610e3390611efc565b60405180910390fd5b80600160008573ffffffffffffffffffffffffffffffffffffffff1673ffffffffffffffffffffffffffffffffffffffff16815260200190815260200160002060008473ffffffffffffffffffffffffffffffffffffffff1673ffffffffffffffffffffffffffffffffffffffff168152602001908152602001600020819055508173ffffffffffffffffffffffffffffffffffffffff168373ffffffffffffffffffffffffffffffffffffffff167f8c5be1e5ebec7d5bd14f71427d1e84f3dd0314c0f7b2291e5b200ac8c7c3b92583604051610f1a919061209c565b60405180910390a3505050565b6000610f338484610c3f565b90507fffffffffffffffffffffffffffffffffffffffffffffffffffffffffffffffff8114610fad5781811015610f9f576040517f08c379a0000000000000000000000000000000000000000000000000000000008152600401610f9690611f1c565b60405180910390fd5b610fac8484848403610d5c565b5b50505050565b600073ffffffffffffffffffffffffffffffffffffffff168373ffffffffffffffffffffffffffffffffffffffff161415611023576040517f08c379a000000000000000000000000000000000000000000000000000000000815260040161101a90611ffc565b60405180910390fd5b600073ffffffffffffffffffffffffffffffffffffffff168273ffffffffffffffffffffffffffffffffffffffff161415611093576040517f08c379a000000000000000000000000000000000000000000000000000000000815260040161108a90611e9c565b60405180910390fd5b61109e838383611694565b60008060008573ffffffffffffffffffffffffffffffffffffffff1673ffffffffffffffffffffffffffffffffffffffff16815260200190815260200160002054905081811015611124576040517f08c379a000000000000000000000000000000000000000000000000000000000815260040161111b90611f3c565b60405180910390fd5b8181036000808673ffffffffffffffffffffffffffffffffffffffff1673ffffffffffffffffffffffffffffffffffffffff16815260200190815260200160002081905550816000808573ffffffffffffffffffffffffffffffffffffffff1673ffffffffffffffffffffffffffffffffffffffff168152602001908152602001600020600082825401925050819055508273ffffffffffffffffffffffffffffffffffffffff168473ffffffffffffffffffffffffffffffffffffffff167fddf252ad1be2c89b69c2b068fc378daa952ba7f163c4a11628f55a4df523b3ef84604051611212919061209c565b60405180910390a3611225848484611699565b50505050565b611233610d54565b73ffffffffffffffffffffffffffffffffffffffff166112516107df565b73ffffffffffffffffffffffffffffffffffffffff16146112a7576040517f08c379a000000000000000000000000000000000000000000000000000000000815260040161129e90611f7c565b60405180910390fd5b565b600073ffffffffffffffffffffffffffffffffffffffff168273ffffffffffffffffffffffffffffffffffffffff161415611319576040517f08c379a00000000000000000000000000000000000000000000000000000000081526004016113109061207c565b60405180910390fd5b61132560008383611694565b80600260008282546113379190612117565b92505081905550806000808473ffffffffffffffffffffffffffffffffffffffff1673ffffffffffffffffffffffffffffffffffffffff168152602001908152602001600020600082825401925050819055508173ffffffffffffffffffffffffffffffffffffffff16600073ffffffffffffffffffffffffffffffffffffffff167fddf252ad1be2c89b69c2b068fc378daa952ba7f163c4a11628f55a4df523b3ef836040516113e8919061209c565b60405180910390a36113fc60008383611699565b5050565b600073ffffffffffffffffffffffffffffffffffffffff168273ffffffffffffffffffffffffffffffffffffffff161415611470576040517f08c379a000000000000000000000000000000000000000000000000000000000815260040161146790611fbc565b60405180910390fd5b61147c82600083611694565b60008060008473ffffffffffffffffffffffffffffffffffffffff1673ffffffffffffffffffffffffffffffffffffffff16815260200190815260200160002054905081811015611502576040517f08c379a00000000000000000000000000000000000000000000000000000000081526004016114f990611ebc565b60405180910390fd5b8181036000808573ffffffffffffffffffffffffffffffffffffffff1673ffffffffffffffffffffffffffffffffffffffff1681526020019081526020016000208190555081600260008282540392505081905550600073ffffffffffffffffffffffffffffffffffffffff168373ffffffffffffffffffffffffffffffffffffffff167fddf252ad1be2c89b69c2b068fc378daa952ba7f163c4a11628f55a4df523b3ef846040516115b5919061209c565b60405180910390a36115c983600084611699565b505050565b6000600560009054906101000a900473ffffffffffffffffffffffffffffffffffffffff16905081600560006101000a81548173ffffffffffffffffffffffffffffffffffffffff021916908373ffffffffffffffffffffffffffffffffffffffff1602179055508173ffffffffffffffffffffffffffffffffffffffff168173ffffffffffffffffffffffffffffffffffffffff167f8be0079c531659141344cd1fd0a4f28419497f9722a3daafe3b4186f6b6457e060405160405180910390a35050565b505050565b505050565b6000813590506116ad81612384565b92915050565b6000813590506116c28161239b565b92915050565b6000602082840312156116da57600080fd5b60006116e88482850161169e565b91505092915050565b6000806040838503121561170457600080fd5b60006117128582860161169e565b92505060206117238582860161169e565b9150509250929050565b60008060006060848603121561174257600080fd5b60006117508682870161169e565b93505060206117618682870161169e565b9250506040611772868287016116b3565b9150509250925092565b6000806040838503121561178f57600080fd5b600061179d8582860161169e565b92505060206117ae858286016116b3565b9150509250929050565b6000602082840312156117ca57600080fd5b60006117d8848285016116b3565b91505092915050565b6117ea8161222c565b82525050565b6117f98161223e565b82525050565b600061180a826120fb565b6118148185612106565b9350611824818560208601612281565b61182d81612373565b840191505092915050565b6000611845602383612106565b91507f45524332303a207472616e7366657220746f20746865207a65726f206164647260008301527f65737300000000000000000000000000000000000000000000000000000000006020830152604082019050919050565b60006118ab602283612106565b91507f45524332303a206275726e20616d6f756e7420657863656564732062616c616e60008301527f63650000000000000000000000000000000000000000000000000000000000006020830152604082019050919050565b6000611911602683612106565b91507f4f776e61626c653a206e6577206f776e657220697320746865207a65726f206160008301527f64647265737300000000000000000000000000000000000000000000000000006020830152604082019050919050565b6000611977602283612106565b91507f45524332303a20617070726f766520746f20746865207a65726f20616464726560008301527f73730000000000000000000000000000000000000000000000000000000000006020830152604082019050919050565b60006119dd601d83612106565b91507f45524332303a20696e73756666696369656e7420616c6c6f77616e63650000006000830152602082019050919050565b6000611a1d602683612106565b91507f45524332303a207472616e7366657220616d6f756e742065786365656473206260008301527f616c616e636500000000000000000000000000000000000000000000000000006020830152604082019050919050565b6000611a83602583612106565b91507f546f74616c20737570706c792063616e6e6f7420657863656564206d6178207360008301527f7570706c790000000000000000000000000000000000000000000000000000006020830152604082019050919050565b6000611ae9602083612106565b91507f4f776e61626c653a2063616c6c6572206973206e6f7420746865206f776e65726000830152602082019050919050565b6000611b29602283612106565b91507f4e657720616464726573732063616e6e6f74206265207a65726f20616464726560008301527f73730000000000000000000000000000000000000000000000000000000000006020830152604082019050919050565b6000611b8f602183612106565b91507f45524332303a206275726e2066726f6d20746865207a65726f2061646472657360008301527f73000000000000000000000000000000000000000000000000000000000000006020830152604082019050919050565b6000611bf5602983612106565b91507f546f6b656e73206275726e742070657263656e746167652063616e6e6f74206560008301527f78636565642031303000000000000000000000000000000000000000000000006020830152604082019050919050565b6000611c5b602583612106565b91507f45524332303a207472616e736665722066726f6d20746865207a65726f20616460008301527f64726573730000000000000000000000000000000000000000000000000000006020830152604082019050919050565b6000611cc1602483612106565b91507f45524332303a20617070726f76652066726f6d20746865207a65726f2061646460008301527f72657373000000000000000000000000000000000000000000000000000000006020830152604082019050919050565b6000611d27602c83612106565b91507f5472616e73616374696f6e206665652070657263656e746167652063616e6e6f60008301527f74206578636565642031303000000000000000000000000000000000000000006020830152604082019050919050565b6000611d8d602583612106565b91507f45524332303a2064656372656173656420616c6c6f77616e63652062656c6f7760008301527f207a65726f0000000000000000000000000000000000000000000000000000006020830152604082019050919050565b6000611df3601f83612106565b91507f45524332303a206d696e7420746f20746865207a65726f2061646472657373006000830152602082019050919050565b611e2f8161226a565b82525050565b611e3e81612274565b82525050565b6000602082019050611e5960008301846117e1565b92915050565b6000602082019050611e7460008301846117f0565b92915050565b60006020820190508181036000830152611e9481846117ff565b905092915050565b60006020820190508181036000830152611eb581611838565b9050919050565b60006020820190508181036000830152611ed58161189e565b9050919050565b60006020820190508181036000830152611ef581611904565b9050919050565b60006020820190508181036000830152611f158161196a565b9050919050565b60006020820190508181036000830152611f35816119d0565b9050919050565b60006020820190508181036000830152611f5581611a10565b9050919050565b60006020820190508181036000830152611f7581611a76565b9050919050565b60006020820190508181036000830152611f9581611adc565b9050919050565b60006020820190508181036000830152611fb581611b1c565b9050919050565b60006020820190508181036000830152611fd581611b82565b9050919050565b60006020820190508181036000830152611ff581611be8565b9050919050565b6000602082019050818103600083015261201581611c4e565b9050919050565b6000602082019050818103600083015261203581611cb4565b9050919050565b6000602082019050818103600083015261205581611d1a565b9050919050565b6000602082019050818103600083015261207581611d80565b9050919050565b6000602082019050818103600083015261209581611de6565b9050919050565b60006020820190506120b16000830184611e26565b92915050565b60006040820190506120cc6000830185611e26565b6120d96020830184611e26565b9392505050565b60006020820190506120f56000830184611e35565b92915050565b600081519050919050565b600082825260208201905092915050565b60006121228261226a565b915061212d8361226a565b9250827fffffffffffffffffffffffffffffffffffffffffffffffffffffffffffffffff03821115612162576121616122e6565b5b828201905092915050565b60006121788261226a565b91506121838361226a565b92508261219357612192612315565b5b828204905092915050565b60006121a98261226a565b91506121b48361226a565b9250817fffffffffffffffffffffffffffffffffffffffffffffffffffffffffffffffff04831182151516156121ed576121ec6122e6565b5b828202905092915050565b60006122038261226a565b915061220e8361226a565b925082821015612221576122206122e6565b5b828203905092915050565b60006122378261224a565b9050919050565b60008115159050919050565b600073ffffffffffffffffffffffffffffffffffffffff82169050919050565b6000819050919050565b600060ff82169050919050565b60005b8381101561229f578082015181840152602081019050612284565b838111156122ae576000848401525b50505050565b600060028204905060018216806122cc57607f821691505b602082108114156122e0576122df612344565b5b50919050565b7f4e487b7100000000000000000000000000000000000000000000000000000000600052601160045260246000fd5b7f4e487b7100000000000000000000000000000000000000000000000000000000600052601260045260246000fd5b7f4e487b7100000000000000000000000000000000000000000000000000000000600052602260045260246000fd5b6000601f19601f8301169050919050565b61238d8161222c565b811461239857600080fd5b50565b6123a48161226a565b81146123af57600080fd5b5056fea264697066735822122001d7a4e179b708fa2369d6f2dfb20a2f5a988f613606a9a06ef78a1647cac51e64736f6c63430008000033",
  "immutableReferences": {},
  "source": "// SPDX-License-Identifier: MIT\npragma solidity ^0.8.0;\n\nimport \"@openzeppelin/contracts/token/ERC20/ERC20.sol\";\nimport \"@openzeppelin/contracts/access/Ownable.sol\";\n\ncontract MyToken is ERC20, Ownable {\n\n    uint256 private _maxSupply;\n    uint256 private _totalBurnt;\n    uint256 private _transactionFeePercentage;\n    uint256 private _tokensBurntPercentage;\n    address private _projectFeeAddress;\n\n    event TokensMinted(address indexed to, uint256 amount);\n    event TokensBurnt(address indexed from, uint256 amount);\n    event ProjectFeeAddressChanged(address indexed previousAddress, address indexed newAddress);\n    event TransactionFeePercentageChanged(uint256 previousPercentage, uint256 newPercentage);\n    event TokensBurntPercentageChanged(uint256 previousPercentage, uint256 newPercentage);\n\n    constructor(\n        string memory name,\n        string memory symbol,\n        uint256 initialSupply,\n        uint256 maxSupply,\n        uint256 transactionFeePercentage,\n        uint256 tokensBurntPercentage,\n        address projectFeeAddress\n    ) ERC20(name, symbol) {\n        require(initialSupply <= maxSupply, \"Initial supply cannot exceed max supply\");\n        _maxSupply = maxSupply;\n        _transactionFeePercentage = transactionFeePercentage;\n        _tokensBurntPercentage = tokensBurntPercentage;\n        _projectFeeAddress = projectFeeAddress;\n        _mint(msg.sender, initialSupply);\n    }\n    // \n    function mint(address to, uint256 amount) external onlyOwner {\n        require(totalSupply() + amount <= _maxSupply, \"Total supply cannot exceed max supply\");\n        _mint(to, amount);\n        emit TokensMinted(to, amount);\n    }\n    // \n    function burn(uint256 amount) external {\n        _burn(msg.sender, amount);\n        _totalBurnt += amount;\n        emit TokensBurnt(msg.sender, amount);\n    }\n    // \n    function transactionFeePercentage() external view returns (uint256) {\n        return _transactionFeePercentage;\n    }\n    // token\n    function tokensBurntPercentage() external view returns (uint256) {\n        return _tokensBurntPercentage;\n    }\n    // \n    function projectFeeAddress() external view returns (address) {\n        return _projectFeeAddress;\n    }\n    // \n    function changeProjectFeeAddress(address newAddress) external onlyOwner {\n        require(newAddress != address(0), \"New address cannot be zero address\");\n        emit ProjectFeeAddressChanged(_projectFeeAddress, newAddress);\n        _projectFeeAddress = newAddress;\n    }\n    // \n    function changeTransactionFeePercentage(uint256 newPercentage) external onlyOwner {\n        require(newPercentage <= 100, \"Transaction fee percentage cannot exceed 100\");\n        emit TransactionFeePercentageChanged(_transactionFeePercentage, newPercentage);\n        _transactionFeePercentage = newPercentage;\n    }\n    // \n    function changeTokensBurntPercentage(uint256 newPercentage) external onlyOwner {\n        require(newPercentage <= 100, \"Tokens burnt percentage cannot exceed 100\");\n        emit TokensBurntPercentageChanged(_tokensBurntPercentage, newPercentage);\n        _tokensBurntPercentage = newPercentage;\n    }\n    // \n    function transfer(address to, uint256 amount) public virtual override returns (bool) {\n        uint256 transactionFee = (amount * _transactionFeePercentage) / 100;\n        uint256 tokensBurnt = (amount * _tokensBurntPercentage) / 100;\n        uint256 amountAfterFee = amount - transactionFee - tokensBurnt;\n\n        _transfer(_msgSender(), _projectFeeAddress, transactionFee);\n        _transfer(_msgSender(), to, amountAfterFee);\n        if(tokensBurnt > 0){\n            _burn(msg.sender, tokensBurnt);\n            _totalBurnt += tokensBurnt;\n            emit TokensBurnt(msg.sender, tokensBurnt);\n        }\n\n        return true;\n    }\n\n    function maxSupply() external view returns (uint256) {\n        return _maxSupply;\n    }\n\n    function totalBurnt() external view returns (uint256) {\n        return _totalBurnt;\n    }\n\n}",
  "sourcePath": "/root/truffle/contracts/my_token.sol",
  "compiler": {
    "name": "solc",
    "version": "0.8.0+commit.c7dfd78e.Emscripten.clang"
  },
  "schemaVersion": "3.4.13",
  "updatedAt": "2023-05-04T03:21:54.186Z",
  "networkType": "ethereum",
  "devdoc": {
    "kind": "dev",
    "methods": {
      "allowance(address,address)": {
        "details": "See {IERC20-allowance}."
      },
      "approve(address,uint256)": {
        "details": "See {IERC20-approve}. NOTE: If `amount` is the maximum `uint256`, the allowance is not updated on `transferFrom`. This is semantically equivalent to an infinite approval. Requirements: - `spender` cannot be the zero address."
      },
      "balanceOf(address)": {
        "details": "See {IERC20-balanceOf}."
      },
      "decimals()": {
        "details": "Returns the number of decimals used to get its user representation. For example, if `decimals` equals `2`, a balance of `505` tokens should be displayed to a user as `5.05` (`505 / 10 ** 2`). Tokens usually opt for a value of 18, imitating the relationship between Ether and Wei. This is the value {ERC20} uses, unless this function is overridden; NOTE: This information is only used for _display_ purposes: it in no way affects any of the arithmetic of the contract, including {IERC20-balanceOf} and {IERC20-transfer}."
      },
      "decreaseAllowance(address,uint256)": {
        "details": "Atomically decreases the allowance granted to `spender` by the caller. This is an alternative to {approve} that can be used as a mitigation for problems described in {IERC20-approve}. Emits an {Approval} event indicating the updated allowance. Requirements: - `spender` cannot be the zero address. - `spender` must have allowance for the caller of at least `subtractedValue`."
      },
      "increaseAllowance(address,uint256)": {
        "details": "Atomically increases the allowance granted to `spender` by the caller. This is an alternative to {approve} that can be used as a mitigation for problems described in {IERC20-approve}. Emits an {Approval} event indicating the updated allowance. Requirements: - `spender` cannot be the zero address."
      },
      "name()": {
        "details": "Returns the name of the token."
      },
      "owner()": {
        "details": "Returns the address of the current owner."
      },
      "renounceOwnership()": {
        "details": "Leaves the contract without owner. It will not be possible to call `onlyOwner` functions anymore. Can only be called by the current owner. NOTE: Renouncing ownership will leave the contract without an owner, thereby removing any functionality that is only available to the owner."
      },
      "symbol()": {
        "details": "Returns the symbol of the token, usually a shorter version of the name."
      },
      "totalSupply()": {
        "details": "See {IERC20-totalSupply}."
      },
      "transfer(address,uint256)": {
        "details": "See {IERC20-transfer}. Requirements: - `to` cannot be the zero address. - the caller must have a balance of at least `amount`."
      },
      "transferFrom(address,address,uint256)": {
        "details": "See {IERC20-transferFrom}. Emits an {Approval} event indicating the updated allowance. This is not required by the EIP. See the note at the beginning of {ERC20}. NOTE: Does not update the allowance if the current allowance is the maximum `uint256`. Requirements: - `from` and `to` cannot be the zero address. - `from` must have a balance of at least `amount`. - the caller must have allowance for ``from``'s tokens of at least `amount`."
      },
      "transferOwnership(address)": {
        "details": "Transfers ownership of the contract to a new account (`newOwner`). Can only be called by the current owner."
      }
    },
    "version": 1
  },
  "userdoc": {
    "kind": "user",
    "methods": {},
    "version": 1
  }
}