{
  "contractName": "CloneFactory",
  "abi": [
    {
      "inputs": [
        {
          "internalType": "address",
          "name": "prototype",
          "type": "address"
        }
      ],
      "name": "clone",
      "outputs": [
        {
          "internalType": "address",
          "name": "proxy",
          "type": "address"
        }
      ],
      "stateMutability": "nonpayable",
      "type": "function"
    }
  ],
  "bytecode": "0x608060405234801561001057600080fd5b506101b4806100206000396000f3fe608060405234801561001057600080fd5b506004361061002b5760003560e01c80638124b78e14610030575b600080fd5b61004a600480360381019061004591906100e2565b610060565b604051610057919061011a565b60405180910390f35b6000808260601b90506040517f3d602d80600a3d3981f3363d3d373d3d3d363d7300000000000000000000000081528160148201527f5af43d82803e903d91602b57fd5bf3000000000000000000000000000000000060288201526037816000f092505081915050919050565b6000813590506100dc81610167565b92915050565b6000602082840312156100f457600080fd5b6000610102848285016100cd565b91505092915050565b61011481610135565b82525050565b600060208201905061012f600083018461010b565b92915050565b600061014082610147565b9050919050565b600073ffffffffffffffffffffffffffffffffffffffff82169050919050565b61017081610135565b811461017b57600080fd5b5056fea2646970667358221220574278f8350afc51cf961e71affc6b20c0b5d2667ee2e84082cf0bb1942ab08464736f6c63430006090033",
  "immutableReferences": {},
  "source": "/**\r\n *Submitted for verification at Etherscan.io on 2020-08-07\r\n*/\r\n\r\n/*\r\n\r\n    Copyright 2020 DODO ZOO.\r\n    SPDX-License-Identifier: Apache-2.0\r\n\r\n*/\r\n\r\npragma solidity 0.6.9;\r\npragma experimental ABIEncoderV2;\r\n\r\ninterface ICloneFactory {\r\n    function clone(address prototype) external returns (address proxy);\r\n}\r\n\r\n// introduction of proxy mode design: https://docs.openzeppelin.com/upgrades/2.8/\r\n// minimum implementation of transparent proxy: https://eips.ethereum.org/EIPS/eip-1167\r\n\r\ncontract CloneFactory is ICloneFactory {\r\n    function clone(address prototype) external override returns (address proxy) {\r\n        bytes20 targetBytes = bytes20(prototype);\r\n        assembly {\r\n            let clone := mload(0x40)\r\n            mstore(clone, 0x3d602d80600a3d3981f3363d3d373d3d3d363d73000000000000000000000000)\r\n            mstore(add(clone, 0x14), targetBytes)\r\n            mstore(\r\n                add(clone, 0x28),\r\n                0x5af43d82803e903d91602b57fd5bf30000000000000000000000000000000000\r\n            )\r\n            proxy := create(0, clone, 0x37)\r\n        }\r\n        return proxy;\r\n    }\r\n}",
  "sourcePath": "/root/truffle/contracts/cloneFactory.sol",
  "compiler": {
    "name": "solc",
    "version": "0.6.9+commit.3e3065ac.Emscripten.clang"
  },
  "schemaVersion": "3.4.13",
  "updatedAt": "2023-05-07T15:04:53.811Z",
  "networkType": "ethereum",
  "devdoc": {
    "methods": {}
  },
  "userdoc": {
    "methods": {}
  }
}