{
  "contractName": "ERC20V3Factory",
  "abi": [
    {
      "inputs": [
        {
          "internalType": "address",
          "name": "cloneFactory",
          "type": "address"
        },
        {
          "internalType": "address",
          "name": "erc20Template",
          "type": "address"
        },
        {
          "internalType": "address",
          "name": "customErc20Template",
          "type": "address"
        },
        {
          "internalType": "address",
          "name": "customMintableErc20Template",
          "type": "address"
        },
        {
          "internalType": "uint256",
          "name": "createFee",
          "type": "uint256"
        }
      ],
      "stateMutability": "nonpayable",
      "type": "constructor"
    },
    {
      "anonymous": false,
      "inputs": [
        {
          "indexed": false,
          "internalType": "uint256",
          "name": "newFee",
          "type": "uint256"
        }
      ],
      "name": "ChangeCreateFee",
      "type": "event"
    },
    {
      "anonymous": false,
      "inputs": [
        {
          "indexed": false,
          "internalType": "address",
          "name": "newCustomMintableTemplate",
          "type": "address"
        }
      ],
      "name": "ChangeCustomMintableTemplate",
      "type": "event"
    },
    {
      "anonymous": false,
      "inputs": [
        {
          "indexed": false,
          "internalType": "address",
          "name": "newCustomTemplate",
          "type": "address"
        }
      ],
      "name": "ChangeCustomTemplate",
      "type": "event"
    },
    {
      "anonymous": false,
      "inputs": [
        {
          "indexed": false,
          "internalType": "address",
          "name": "newStdTemplate",
          "type": "address"
        }
      ],
      "name": "ChangeStdTemplate",
      "type": "event"
    },
    {
      "anonymous": false,
      "inputs": [
        {
          "indexed": false,
          "internalType": "address",
          "name": "erc20",
          "type": "address"
        },
        {
          "indexed": false,
          "internalType": "address",
          "name": "creator",
          "type": "address"
        },
        {
          "indexed": false,
          "internalType": "uint256",
          "name": "erc20Type",
          "type": "uint256"
        }
      ],
      "name": "NewERC20",
      "type": "event"
    },
    {
      "anonymous": false,
      "inputs": [
        {
          "indexed": true,
          "internalType": "address",
          "name": "previousOwner",
          "type": "address"
        },
        {
          "indexed": true,
          "internalType": "address",
          "name": "newOwner",
          "type": "address"
        }
      ],
      "name": "OwnershipTransferPrepared",
      "type": "event"
    },
    {
      "anonymous": false,
      "inputs": [
        {
          "indexed": true,
          "internalType": "address",
          "name": "previousOwner",
          "type": "address"
        },
        {
          "indexed": true,
          "internalType": "address",
          "name": "newOwner",
          "type": "address"
        }
      ],
      "name": "OwnershipTransferred",
      "type": "event"
    },
    {
      "anonymous": false,
      "inputs": [
        {
          "indexed": false,
          "internalType": "address",
          "name": "account",
          "type": "address"
        },
        {
          "indexed": false,
          "internalType": "uint256",
          "name": "amount",
          "type": "uint256"
        }
      ],
      "name": "Withdraw",
      "type": "event"
    },
    {
      "stateMutability": "payable",
      "type": "fallback",
      "payable": true
    },
    {
      "inputs": [],
      "name": "_CLONE_FACTORY_",
      "outputs": [
        {
          "internalType": "address",
          "name": "",
          "type": "address"
        }
      ],
      "stateMutability": "view",
      "type": "function",
      "constant": true
    },
    {
      "inputs": [],
      "name": "_CREATE_FEE_",
      "outputs": [
        {
          "internalType": "uint256",
          "name": "",
          "type": "uint256"
        }
      ],
      "stateMutability": "view",
      "type": "function",
      "constant": true
    },
    {
      "inputs": [],
      "name": "_CUSTOM_ERC20_TEMPLATE_",
      "outputs": [
        {
          "internalType": "address",
          "name": "",
          "type": "address"
        }
      ],
      "stateMutability": "view",
      "type": "function",
      "constant": true
    },
    {
      "inputs": [],
      "name": "_CUSTOM_MINTABLE_ERC20_TEMPLATE_",
      "outputs": [
        {
          "internalType": "address",
          "name": "",
          "type": "address"
        }
      ],
      "stateMutability": "view",
      "type": "function",
      "constant": true
    },
    {
      "inputs": [],
      "name": "_ERC20_TEMPLATE_",
      "outputs": [
        {
          "internalType": "address",
          "name": "",
          "type": "address"
        }
      ],
      "stateMutability": "view",
      "type": "function",
      "constant": true
    },
    {
      "inputs": [],
      "name": "_NEW_OWNER_",
      "outputs": [
        {
          "internalType": "address",
          "name": "",
          "type": "address"
        }
      ],
      "stateMutability": "view",
      "type": "function",
      "constant": true
    },
    {
      "inputs": [],
      "name": "_OWNER_",
      "outputs": [
        {
          "internalType": "address",
          "name": "",
          "type": "address"
        }
      ],
      "stateMutability": "view",
      "type": "function",
      "constant": true
    },
    {
      "inputs": [
        {
          "internalType": "address",
          "name": "",
          "type": "address"
        },
        {
          "internalType": "uint256",
          "name": "",
          "type": "uint256"
        }
      ],
      "name": "_USER_CUSTOM_MINTABLE_REGISTRY_",
      "outputs": [
        {
          "internalType": "address",
          "name": "",
          "type": "address"
        }
      ],
      "stateMutability": "view",
      "type": "function",
      "constant": true
    },
    {
      "inputs": [
        {
          "internalType": "address",
          "name": "",
          "type": "address"
        },
        {
          "internalType": "uint256",
          "name": "",
          "type": "uint256"
        }
      ],
      "name": "_USER_CUSTOM_REGISTRY_",
      "outputs": [
        {
          "internalType": "address",
          "name": "",
          "type": "address"
        }
      ],
      "stateMutability": "view",
      "type": "function",
      "constant": true
    },
    {
      "inputs": [
        {
          "internalType": "address",
          "name": "",
          "type": "address"
        },
        {
          "internalType": "uint256",
          "name": "",
          "type": "uint256"
        }
      ],
      "name": "_USER_STD_REGISTRY_",
      "outputs": [
        {
          "internalType": "address",
          "name": "",
          "type": "address"
        }
      ],
      "stateMutability": "view",
      "type": "function",
      "constant": true
    },
    {
      "inputs": [],
      "name": "claimOwnership",
      "outputs": [],
      "stateMutability": "nonpayable",
      "type": "function"
    },
    {
      "inputs": [
        {
          "internalType": "address",
          "name": "newOwner",
          "type": "address"
        }
      ],
      "name": "initOwner",
      "outputs": [],
      "stateMutability": "nonpayable",
      "type": "function"
    },
    {
      "inputs": [
        {
          "internalType": "address",
          "name": "newOwner",
          "type": "address"
        }
      ],
      "name": "transferOwnership",
      "outputs": [],
      "stateMutability": "nonpayable",
      "type": "function"
    },
    {
      "stateMutability": "payable",
      "type": "receive",
      "payable": true
    },
    {
      "inputs": [
        {
          "internalType": "uint256",
          "name": "totalSupply",
          "type": "uint256"
        },
        {
          "internalType": "string",
          "name": "name",
          "type": "string"
        },
        {
          "internalType": "string",
          "name": "symbol",
          "type": "string"
        },
        {
          "internalType": "uint8",
          "name": "decimals",
          "type": "uint8"
        }
      ],
      "name": "createStdERC20",
      "outputs": [
        {
          "internalType": "address",
          "name": "newERC20",
          "type": "address"
        }
      ],
      "stateMutability": "payable",
      "type": "function",
      "payable": true
    },
    {
      "inputs": [
        {
          "internalType": "uint256",
          "name": "totalSupply",
          "type": "uint256"
        },
        {
          "internalType": "string",
          "name": "name",
          "type": "string"
        },
        {
          "internalType": "string",
          "name": "symbol",
          "type": "string"
        },
        {
          "internalType": "uint8",
          "name": "decimals",
          "type": "uint8"
        },
        {
          "internalType": "uint256",
          "name": "tradeBurnRatio",
          "type": "uint256"
        },
        {
          "internalType": "uint256",
          "name": "tradeFeeRatio",
          "type": "uint256"
        },
        {
          "internalType": "address",
          "name": "teamAccount",
          "type": "address"
        }
      ],
      "name": "createCustomERC20",
      "outputs": [
        {
          "internalType": "address",
          "name": "newCustomERC20",
          "type": "address"
        }
      ],
      "stateMutability": "payable",
      "type": "function",
      "payable": true
    },
    {
      "inputs": [
        {
          "internalType": "uint256",
          "name": "initSupply",
          "type": "uint256"
        },
        {
          "internalType": "string",
          "name": "name",
          "type": "string"
        },
        {
          "internalType": "string",
          "name": "symbol",
          "type": "string"
        },
        {
          "internalType": "uint8",
          "name": "decimals",
          "type": "uint8"
        },
        {
          "internalType": "uint256",
          "name": "tradeBurnRatio",
          "type": "uint256"
        },
        {
          "internalType": "uint256",
          "name": "tradeFeeRatio",
          "type": "uint256"
        },
        {
          "internalType": "address",
          "name": "teamAccount",
          "type": "address"
        }
      ],
      "name": "createCustomMintableERC20",
      "outputs": [
        {
          "internalType": "address",
          "name": "newCustomMintableERC20",
          "type": "address"
        }
      ],
      "stateMutability": "payable",
      "type": "function",
      "payable": true
    },
    {
      "inputs": [
        {
          "internalType": "address",
          "name": "user",
          "type": "address"
        }
      ],
      "name": "getTokenByUser",
      "outputs": [
        {
          "internalType": "address[]",
          "name": "stds",
          "type": "address[]"
        },
        {
          "internalType": "address[]",
          "name": "customs",
          "type": "address[]"
        },
        {
          "internalType": "address[]",
          "name": "mintables",
          "type": "address[]"
        }
      ],
      "stateMutability": "view",
      "type": "function",
      "constant": true
    },
    {
      "inputs": [
        {
          "internalType": "uint256",
          "name": "newFee",
          "type": "uint256"
        }
      ],
      "name": "changeCreateFee",
      "outputs": [],
      "stateMutability": "nonpayable",
      "type": "function"
    },
    {
      "inputs": [],
      "name": "withdraw",
      "outputs": [],
      "stateMutability": "nonpayable",
      "type": "function"
    },
    {
      "inputs": [
        {
          "internalType": "address",
          "name": "newStdTemplate",
          "type": "address"
        }
      ],
      "name": "updateStdTemplate",
      "outputs": [],
      "stateMutability": "nonpayable",
      "type": "function"
    },
    {
      "inputs": [
        {
          "internalType": "address",
          "name": "newCustomTemplate",
          "type": "address"
        }
      ],
      "name": "updateCustomTemplate",
      "outputs": [],
      "stateMutability": "nonpayable",
      "type": "function"
    },
    {
      "inputs": [
        {
          "internalType": "address",
          "name": "newCustomMintableTemplate",
          "type": "address"
        }
      ],
      "name": "updateCustomMintableTemplate",
      "outputs": [],
      "stateMutability": "nonpayable",
      "type": "function"
    }
  ],
  "bytecode": "0x60a06040523480156200001157600080fd5b50604051620025db380380620025db833981810160405281019062000037919062000171565b8473ffffffffffffffffffffffffffffffffffffffff1660808173ffffffffffffffffffffffffffffffffffffffff1660601b8152505083600260006101000a81548173ffffffffffffffffffffffffffffffffffffffff021916908373ffffffffffffffffffffffffffffffffffffffff16021790555082600360006101000a81548173ffffffffffffffffffffffffffffffffffffffff021916908373ffffffffffffffffffffffffffffffffffffffff16021790555081600460006101000a81548173ffffffffffffffffffffffffffffffffffffffff021916908373ffffffffffffffffffffffffffffffffffffffff16021790555080600581905550505050505062000265565b600081519050620001548162000231565b92915050565b6000815190506200016b816200024b565b92915050565b600080600080600060a086880312156200018a57600080fd5b60006200019a8882890162000143565b9550506020620001ad8882890162000143565b9450506040620001c08882890162000143565b9350506060620001d38882890162000143565b9250506080620001e6888289016200015a565b9150509295509295909350565b6000620002008262000207565b9050919050565b600073ffffffffffffffffffffffffffffffffffffffff82169050919050565b6000819050919050565b6200023c81620001f3565b81146200024857600080fd5b50565b620002568162000227565b81146200026257600080fd5b50565b60805160601c61234962000292600039806108f15280610eb65280611236528061180452506123496000f3fe6080604052600436106101395760003560e01c806397381760116100ab578063ca7caaad1161006f578063ca7caaad146103f5578063d029d52114610432578063e1f70b6b14610471578063e6acc72d1461049c578063eb774d05146104c5578063f2fde38b146104f057610140565b80639738176014610316578063aae79d0c14610341578063aef08a541461036c578063afa16b401461039c578063c3223a18146103c557610140565b806335c70da0116100fd57806335c70da0146102275780633ccfd60b14610264578063425a70ef1461027b57806347b3f0e3146102ab5780634e71e0c8146102d45780638456db15146102eb57610140565b8063051396ff146101425780630d0092971461017f57806316048bc4146101a857806321235d4a146101d357806328ab047f146101fe57610140565b3661014057005b005b34801561014e57600080fd5b5061016960048036038101906101649190611a6e565b610519565b6040516101769190611e5b565b60405180910390f35b34801561018b57600080fd5b506101a660048036038101906101a19190611a1c565b610564565b005b3480156101b457600080fd5b506101bd610611565b6040516101ca9190611e5b565b60405180910390f35b3480156101df57600080fd5b506101e8610636565b6040516101f591906120fd565b60405180910390f35b34801561020a57600080fd5b5061022560048036038101906102209190611a1c565b61063c565b005b34801561023357600080fd5b5061024e60048036038101906102499190611a6e565b610746565b60405161025b9190611e5b565b60405180910390f35b34801561027057600080fd5b50610279610791565b005b61029560048036038101906102909190611b66565b6108a8565b6040516102a29190611e5b565b60405180910390f35b3480156102b757600080fd5b506102d260048036038101906102cd9190611a1c565b610b1e565b005b3480156102e057600080fd5b506102e9610c28565b005b3480156102f757600080fd5b50610300610dfb565b60405161030d9190611e5b565b60405180910390f35b34801561032257600080fd5b5061032b610e21565b6040516103389190611e5b565b60405180910390f35b34801561034d57600080fd5b50610356610e47565b6040516103639190611e5b565b60405180910390f35b61038660048036038101906103819190611b66565b610e6d565b6040516103939190611e5b565b60405180910390f35b3480156103a857600080fd5b506103c360048036038101906103be9190611a1c565b6110e3565b005b6103df60048036038101906103da9190611ad3565b6111ed565b6040516103ec9190611e5b565b60405180910390f35b34801561040157600080fd5b5061041c60048036038101906104179190611a6e565b61145a565b6040516104299190611e5b565b60405180910390f35b34801561043e57600080fd5b5061045960048036038101906104549190611a1c565b6114a5565b60405161046893929190612031565b60405180910390f35b34801561047d57600080fd5b5061048661170c565b6040516104939190611e5b565b60405180910390f35b3480156104a857600080fd5b506104c360048036038101906104be9190611aaa565b611732565b005b3480156104d157600080fd5b506104da611802565b6040516104e79190611e5b565b60405180910390f35b3480156104fc57600080fd5b5061051760048036038101906105129190611a1c565b611826565b005b6007602052816000526040600020818154811061053257fe5b906000526020600020016000915091509054906101000a900473ffffffffffffffffffffffffffffffffffffffff1681565b600160149054906101000a900460ff16156105b4576040517f08c379a00000000000000000000000000000000000000000000000000000000081526004016105ab906120bd565b60405180910390fd5b60018060146101000a81548160ff021916908315150217905550806000806101000a81548173ffffffffffffffffffffffffffffffffffffffff021916908373ffffffffffffffffffffffffffffffffffffffff16021790555050565b6000809054906101000a900473ffffffffffffffffffffffffffffffffffffffff1681565b60055481565b6000809054906101000a900473ffffffffffffffffffffffffffffffffffffffff1673ffffffffffffffffffffffffffffffffffffffff163373ffffffffffffffffffffffffffffffffffffffff16146106cb576040517f08c379a00000000000000000000000000000000000000000000000000000000081526004016106c2906120dd565b60405180910390fd5b80600260006101000a81548173ffffffffffffffffffffffffffffffffffffffff021916908373ffffffffffffffffffffffffffffffffffffffff1602179055507fedc968a09f964f0ab07f91c96dd61bbfd3ce2b438ede9e63721d56867ea533658160405161073b9190611e5b565b60405180910390a150565b6006602052816000526040600020818154811061075f57fe5b906000526020600020016000915091509054906101000a900473ffffffffffffffffffffffffffffffffffffffff1681565b6000809054906101000a900473ffffffffffffffffffffffffffffffffffffffff1673ffffffffffffffffffffffffffffffffffffffff163373ffffffffffffffffffffffffffffffffffffffff1614610820576040517f08c379a0000000000000000000000000000000000000000000000000000000008152600401610817906120dd565b60405180910390fd5b60004790503373ffffffffffffffffffffffffffffffffffffffff166108fc829081150290604051600060405180830381858888f1935050505015801561086b573d6000803e3d6000fd5b507f884edad9ce6fa2440d8a54cc123490eb96d2768479d49ff9c7366125a9424364338260405161089d929190611e76565b60405180910390a150565b60006005543410156108ef576040517f08c379a00000000000000000000000000000000000000000000000000000000081526004016108e69061209d565b60405180910390fd5b7f000000000000000000000000000000000000000000000000000000000000000073ffffffffffffffffffffffffffffffffffffffff16638124b78e600460009054906101000a900473ffffffffffffffffffffffffffffffffffffffff166040518263ffffffff1660e01b815260040161096a9190611e5b565b602060405180830381600087803b15801561098457600080fd5b505af1158015610998573d6000803e3d6000fd5b505050506040513d601f19601f820116820180604052508101906109bc9190611a45565b90508073ffffffffffffffffffffffffffffffffffffffff16634ca60825338a8a8a8a8a8a8a6040518963ffffffff1660e01b8152600401610a05989796959493929190611f00565b600060405180830381600087803b158015610a1f57600080fd5b505af1158015610a33573d6000803e3d6000fd5b50505050600860003373ffffffffffffffffffffffffffffffffffffffff1673ffffffffffffffffffffffffffffffffffffffff168152602001908152602001600020819080600181540180825580915050600190039060005260206000200160009091909190916101000a81548173ffffffffffffffffffffffffffffffffffffffff021916908373ffffffffffffffffffffffffffffffffffffffff1602179055507f1393d5edd44c8974d9f4be5f459e4f6c6c67917e4400784fc61d8a0872a9fc3881336002604051610b0b93929190611ffa565b60405180910390a1979650505050505050565b6000809054906101000a900473ffffffffffffffffffffffffffffffffffffffff1673ffffffffffffffffffffffffffffffffffffffff163373ffffffffffffffffffffffffffffffffffffffff1614610bad576040517f08c379a0000000000000000000000000000000000000000000000000000000008152600401610ba4906120dd565b60405180910390fd5b80600460006101000a81548173ffffffffffffffffffffffffffffffffffffffff021916908373ffffffffffffffffffffffffffffffffffffffff1602179055507f1689dd58380943f413ccf540c7f8f63eac346f39503653f23cb96ffdb5079f1081604051610c1d9190611e5b565b60405180910390a150565b600160009054906101000a900473ffffffffffffffffffffffffffffffffffffffff1673ffffffffffffffffffffffffffffffffffffffff163373ffffffffffffffffffffffffffffffffffffffff1614610cb8576040517f08c379a0000000000000000000000000000000000000000000000000000000008152600401610caf9061207d565b60405180910390fd5b600160009054906101000a900473ffffffffffffffffffffffffffffffffffffffff1673ffffffffffffffffffffffffffffffffffffffff166000809054906101000a900473ffffffffffffffffffffffffffffffffffffffff1673ffffffffffffffffffffffffffffffffffffffff167f8be0079c531659141344cd1fd0a4f28419497f9722a3daafe3b4186f6b6457e060405160405180910390a3600160009054906101000a900473ffffffffffffffffffffffffffffffffffffffff166000806101000a81548173ffffffffffffffffffffffffffffffffffffffff021916908373ffffffffffffffffffffffffffffffffffffffff1602179055506000600160006101000a81548173ffffffffffffffffffffffffffffffffffffffff021916908373ffffffffffffffffffffffffffffffffffffffff160217905550565b600160009054906101000a900473ffffffffffffffffffffffffffffffffffffffff1681565b600260009054906101000a900473ffffffffffffffffffffffffffffffffffffffff1681565b600360009054906101000a900473ffffffffffffffffffffffffffffffffffffffff1681565b6000600554341015610eb4576040517f08c379a0000000000000000000000000000000000000000000000000000000008152600401610eab9061209d565b60405180910390fd5b7f000000000000000000000000000000000000000000000000000000000000000073ffffffffffffffffffffffffffffffffffffffff16638124b78e600360009054906101000a900473ffffffffffffffffffffffffffffffffffffffff166040518263ffffffff1660e01b8152600401610f2f9190611e5b565b602060405180830381600087803b158015610f4957600080fd5b505af1158015610f5d573d6000803e3d6000fd5b505050506040513d601f19601f82011682018060405250810190610f819190611a45565b90508073ffffffffffffffffffffffffffffffffffffffff16634ca60825338a8a8a8a8a8a8a6040518963ffffffff1660e01b8152600401610fca989796959493929190611f00565b600060405180830381600087803b158015610fe457600080fd5b505af1158015610ff8573d6000803e3d6000fd5b50505050600760003373ffffffffffffffffffffffffffffffffffffffff1673ffffffffffffffffffffffffffffffffffffffff168152602001908152602001600020819080600181540180825580915050600190039060005260206000200160009091909190916101000a81548173ffffffffffffffffffffffffffffffffffffffff021916908373ffffffffffffffffffffffffffffffffffffffff1602179055507f1393d5edd44c8974d9f4be5f459e4f6c6c67917e4400784fc61d8a0872a9fc38813360016040516110d093929190611fc3565b60405180910390a1979650505050505050565b6000809054906101000a900473ffffffffffffffffffffffffffffffffffffffff1673ffffffffffffffffffffffffffffffffffffffff163373ffffffffffffffffffffffffffffffffffffffff1614611172576040517f08c379a0000000000000000000000000000000000000000000000000000000008152600401611169906120dd565b60405180910390fd5b80600360006101000a81548173ffffffffffffffffffffffffffffffffffffffff021916908373ffffffffffffffffffffffffffffffffffffffff1602179055507fc4c30c18f3faff717bb7f2aeb67ee7b86c03183f60d589bb0864799cfa2da2f5816040516111e29190611e5b565b60405180910390a150565b6000600554341015611234576040517f08c379a000000000000000000000000000000000000000000000000000000000815260040161122b9061209d565b60405180910390fd5b7f000000000000000000000000000000000000000000000000000000000000000073ffffffffffffffffffffffffffffffffffffffff16638124b78e600260009054906101000a900473ffffffffffffffffffffffffffffffffffffffff166040518263ffffffff1660e01b81526004016112af9190611e5b565b602060405180830381600087803b1580156112c957600080fd5b505af11580156112dd573d6000803e3d6000fd5b505050506040513d601f19601f820116820180604052508101906113019190611a45565b90508073ffffffffffffffffffffffffffffffffffffffff1663fc90ef1833878787876040518663ffffffff1660e01b8152600401611344959493929190611e9f565b600060405180830381600087803b15801561135e57600080fd5b505af1158015611372573d6000803e3d6000fd5b50505050600660003373ffffffffffffffffffffffffffffffffffffffff1673ffffffffffffffffffffffffffffffffffffffff168152602001908152602001600020819080600181540180825580915050600190039060005260206000200160009091909190916101000a81548173ffffffffffffffffffffffffffffffffffffffff021916908373ffffffffffffffffffffffffffffffffffffffff1602179055507f1393d5edd44c8974d9f4be5f459e4f6c6c67917e4400784fc61d8a0872a9fc388133600060405161144a93929190611f8c565b60405180910390a1949350505050565b6008602052816000526040600020818154811061147357fe5b906000526020600020016000915091509054906101000a900473ffffffffffffffffffffffffffffffffffffffff1681565b6060806060600660008573ffffffffffffffffffffffffffffffffffffffff1673ffffffffffffffffffffffffffffffffffffffff168152602001908152602001600020600760008673ffffffffffffffffffffffffffffffffffffffff1673ffffffffffffffffffffffffffffffffffffffff168152602001908152602001600020600860008773ffffffffffffffffffffffffffffffffffffffff1673ffffffffffffffffffffffffffffffffffffffff168152602001908152602001600020828054806020026020016040519081016040528092919081815260200182805480156115e857602002820191906000526020600020905b8160009054906101000a900473ffffffffffffffffffffffffffffffffffffffff1673ffffffffffffffffffffffffffffffffffffffff168152602001906001019080831161159e575b505050505092508180548060200260200160405190810160405280929190818152602001828054801561167057602002820191906000526020600020905b8160009054906101000a900473ffffffffffffffffffffffffffffffffffffffff1673ffffffffffffffffffffffffffffffffffffffff1681526020019060010190808311611626575b50505050509150808054806020026020016040519081016040528092919081815260200182805480156116f857602002820191906000526020600020905b8160009054906101000a900473ffffffffffffffffffffffffffffffffffffffff1673ffffffffffffffffffffffffffffffffffffffff16815260200190600101908083116116ae575b505050505090509250925092509193909250565b600460009054906101000a900473ffffffffffffffffffffffffffffffffffffffff1681565b6000809054906101000a900473ffffffffffffffffffffffffffffffffffffffff1673ffffffffffffffffffffffffffffffffffffffff163373ffffffffffffffffffffffffffffffffffffffff16146117c1576040517f08c379a00000000000000000000000000000000000000000000000000000000081526004016117b8906120dd565b60405180910390fd5b806005819055507fe2a626dd21b2ca43b97ef589791d30517db1c9676631e68d57b444e2e1826909816040516117f791906120fd565b60405180910390a150565b7f000000000000000000000000000000000000000000000000000000000000000081565b6000809054906101000a900473ffffffffffffffffffffffffffffffffffffffff1673ffffffffffffffffffffffffffffffffffffffff163373ffffffffffffffffffffffffffffffffffffffff16146118b5576040517f08c379a00000000000000000000000000000000000000000000000000000000081526004016118ac906120dd565b60405180910390fd5b8073ffffffffffffffffffffffffffffffffffffffff166000809054906101000a900473ffffffffffffffffffffffffffffffffffffffff1673ffffffffffffffffffffffffffffffffffffffff167fdcf55418cee3220104fef63f979ff3c4097ad240c0c43dcb33ce837748983e6260405160405180910390a380600160006101000a81548173ffffffffffffffffffffffffffffffffffffffff021916908373ffffffffffffffffffffffffffffffffffffffff16021790555050565b600081359050611983816122ce565b92915050565b600081519050611998816122ce565b92915050565b600082601f8301126119af57600080fd5b81356119c26119bd82612145565b612118565b915080825260208301602083018583830111156119de57600080fd5b6119e983828461227b565b50505092915050565b600081359050611a01816122e5565b92915050565b600081359050611a16816122fc565b92915050565b600060208284031215611a2e57600080fd5b6000611a3c84828501611974565b91505092915050565b600060208284031215611a5757600080fd5b6000611a6584828501611989565b91505092915050565b60008060408385031215611a8157600080fd5b6000611a8f85828601611974565b9250506020611aa0858286016119f2565b9150509250929050565b600060208284031215611abc57600080fd5b6000611aca848285016119f2565b91505092915050565b60008060008060808587031215611ae957600080fd5b6000611af7878288016119f2565b945050602085013567ffffffffffffffff811115611b1457600080fd5b611b208782880161199e565b935050604085013567ffffffffffffffff811115611b3d57600080fd5b611b498782880161199e565b9250506060611b5a87828801611a07565b91505092959194509250565b600080600080600080600060e0888a031215611b8157600080fd5b6000611b8f8a828b016119f2565b975050602088013567ffffffffffffffff811115611bac57600080fd5b611bb88a828b0161199e565b965050604088013567ffffffffffffffff811115611bd557600080fd5b611be18a828b0161199e565b9550506060611bf28a828b01611a07565b9450506080611c038a828b016119f2565b93505060a0611c148a828b016119f2565b92505060c0611c258a828b01611974565b91505092959891949750929550565b6000611c408383611c5b565b60208301905092915050565b611c558161220f565b82525050565b611c64816121c6565b82525050565b611c73816121c6565b82525050565b6000611c8482612181565b611c8e81856121a4565b9350611c9983612171565b8060005b83811015611cca578151611cb18882611c34565b9750611cbc83612197565b925050600181019050611c9d565b5085935050505092915050565b611ce081612221565b82525050565b611cef81612233565b82525050565b611cfe81612245565b82525050565b6000611d0f8261218c565b611d1981856121b5565b9350611d2981856020860161228a565b611d32816122bd565b840191505092915050565b6000611d4a600d836121b5565b91507f494e56414c49445f434c41494d000000000000000000000000000000000000006000830152602082019050919050565b6000611d8a6015836121b5565b91507f4352454154455f4645455f4e4f545f454e4f55474800000000000000000000006000830152602082019050919050565b6000611dca6010836121b5565b91507f444f444f5f494e495449414c495a4544000000000000000000000000000000006000830152602082019050919050565b6000611e0a6009836121b5565b91507f4e4f545f4f574e455200000000000000000000000000000000000000000000006000830152602082019050919050565b611e46816121f8565b82525050565b611e5581612202565b82525050565b6000602082019050611e706000830184611c6a565b92915050565b6000604082019050611e8b6000830185611c4c565b611e986020830184611e3d565b9392505050565b600060a082019050611eb46000830188611c4c565b611ec16020830187611e3d565b8181036040830152611ed38186611d04565b90508181036060830152611ee78185611d04565b9050611ef66080830184611e4c565b9695505050505050565b600061010082019050611f16600083018b611c4c565b611f23602083018a611e3d565b8181036040830152611f358189611d04565b90508181036060830152611f498188611d04565b9050611f586080830187611e4c565b611f6560a0830186611e3d565b611f7260c0830185611e3d565b611f7f60e0830184611c6a565b9998505050505050505050565b6000606082019050611fa16000830186611c6a565b611fae6020830185611c4c565b611fbb6040830184611cd7565b949350505050565b6000606082019050611fd86000830186611c6a565b611fe56020830185611c4c565b611ff26040830184611ce6565b949350505050565b600060608201905061200f6000830186611c6a565b61201c6020830185611c4c565b6120296040830184611cf5565b949350505050565b6000606082019050818103600083015261204b8186611c79565b9050818103602083015261205f8185611c79565b905081810360408301526120738184611c79565b9050949350505050565b6000602082019050818103600083015261209681611d3d565b9050919050565b600060208201905081810360008301526120b681611d7d565b9050919050565b600060208201905081810360008301526120d681611dbd565b9050919050565b600060208201905081810360008301526120f681611dfd565b9050919050565b60006020820190506121126000830184611e3d565b92915050565b6000604051905081810181811067ffffffffffffffff8211171561213b57600080fd5b8060405250919050565b600067ffffffffffffffff82111561215c57600080fd5b601f19601f8301169050602081019050919050565b6000819050602082019050919050565b600081519050919050565b600081519050919050565b6000602082019050919050565b600082825260208201905092915050565b600082825260208201905092915050565b60006121d1826121d8565b9050919050565b600073ffffffffffffffffffffffffffffffffffffffff82169050919050565b6000819050919050565b600060ff82169050919050565b600061221a82612257565b9050919050565b600061222c826121f8565b9050919050565b600061223e826121f8565b9050919050565b6000612250826121f8565b9050919050565b600061226282612269565b9050919050565b6000612274826121d8565b9050919050565b82818337600083830152505050565b60005b838110156122a857808201518184015260208101905061228d565b838111156122b7576000848401525b50505050565b6000601f19601f8301169050919050565b6122d7816121c6565b81146122e257600080fd5b50565b6122ee816121f8565b81146122f957600080fd5b50565b61230581612202565b811461231057600080fd5b5056fea2646970667358221220349f7da2c7f7ee189f39e5c938135a31e8ef672a726af4d06d5fa9ae44ba231a64736f6c63430006090033",
  "immutableReferences": {
    "1846": [
      {
        "length": 32,
        "start": 2289
      },
      {
        "length": 32,
        "start": 3766
      },
      {
        "length": 32,
        "start": 4662
      },
      {
        "length": 32,
        "start": 6148
      }
    ]
  },
  "source": "/**\r\n *Submitted for verification at Etherscan.io on 2022-02-21\r\n*/\r\n\r\n// File: contracts/lib/CloneFactory.sol\r\n\r\n/*\r\n\r\n    Copyright 2020 DODO ZOO.\r\n    SPDX-License-Identifier: Apache-2.0\r\n\r\n*/\r\n\r\npragma solidity 0.6.9;\r\npragma experimental ABIEncoderV2;\r\n\r\ninterface ICloneFactory {\r\n    function clone(address prototype) external returns (address proxy);\r\n}\r\n\r\n// introduction of proxy mode design: https://docs.openzeppelin.com/upgrades/2.8/\r\n// minimum implementation of transparent proxy: https://eips.ethereum.org/EIPS/eip-1167\r\n\r\ncontract CloneFactory is ICloneFactory {\r\n    function clone(address prototype) external override returns (address proxy) {\r\n        bytes20 targetBytes = bytes20(prototype);\r\n        assembly {\r\n            let clone := mload(0x40)\r\n            mstore(clone, 0x3d602d80600a3d3981f3363d3d373d3d3d363d73000000000000000000000000)\r\n            mstore(add(clone, 0x14), targetBytes)\r\n            mstore(\r\n                add(clone, 0x28),\r\n                0x5af43d82803e903d91602b57fd5bf30000000000000000000000000000000000\r\n            )\r\n            proxy := create(0, clone, 0x37)\r\n        }\r\n        return proxy;\r\n    }\r\n}\r\n\r\n// File: contracts/lib/InitializableOwnable.sol\r\n\r\n\r\n/**\r\n * @title Ownable\r\n * @author DODO Breeder\r\n *\r\n * @notice Ownership related functions\r\n */\r\ncontract InitializableOwnable {\r\n    address public _OWNER_;\r\n    address public _NEW_OWNER_;\r\n    bool internal _INITIALIZED_;\r\n\r\n    // ============ Events ============\r\n\r\n    event OwnershipTransferPrepared(address indexed previousOwner, address indexed newOwner);\r\n\r\n    event OwnershipTransferred(address indexed previousOwner, address indexed newOwner);\r\n\r\n    // ============ Modifiers ============\r\n\r\n    modifier notInitialized() {\r\n        require(!_INITIALIZED_, \"DODO_INITIALIZED\");\r\n        _;\r\n    }\r\n\r\n    modifier onlyOwner() {\r\n        require(msg.sender == _OWNER_, \"NOT_OWNER\");\r\n        _;\r\n    }\r\n\r\n    // ============ Functions ============\r\n\r\n    function initOwner(address newOwner) public notInitialized {\r\n        _INITIALIZED_ = true;\r\n        _OWNER_ = newOwner;\r\n    }\r\n\r\n    function transferOwnership(address newOwner) public onlyOwner {\r\n        emit OwnershipTransferPrepared(_OWNER_, newOwner);\r\n        _NEW_OWNER_ = newOwner;\r\n    }\r\n\r\n    function claimOwnership() public {\r\n        require(msg.sender == _NEW_OWNER_, \"INVALID_CLAIM\");\r\n        emit OwnershipTransferred(_OWNER_, _NEW_OWNER_);\r\n        _OWNER_ = _NEW_OWNER_;\r\n        _NEW_OWNER_ = address(0);\r\n    }\r\n}\r\n\r\n// File: contracts/Factory/ERC20V3Factory.sol\r\n\r\n\r\n\r\n\r\ninterface IStdERC20 {\r\n    function init(\r\n        address _creator,\r\n        uint256 _totalSupply,\r\n        string memory _name,\r\n        string memory _symbol,\r\n        uint8 _decimals\r\n    ) external;\r\n}\r\n\r\ninterface ICustomERC20 {\r\n    function init(\r\n        address _creator,\r\n        uint256 _initSupply,\r\n        string memory _name,\r\n        string memory _symbol,\r\n        uint8 _decimals,\r\n        uint256 _tradeBurnRatio,\r\n        uint256 _tradeFeeRatio,\r\n        address _team\r\n    ) external;\r\n}\r\n\r\n/**\r\n * @title DODO ERC20V2Factory\r\n * @author DODO Breeder\r\n *\r\n * @notice Help user to create erc20 token\r\n */\r\ncontract ERC20V3Factory is InitializableOwnable {\r\n    // ============ Templates ============\r\n\r\n    address public immutable _CLONE_FACTORY_;\r\n    address public _ERC20_TEMPLATE_;\r\n    address public _CUSTOM_ERC20_TEMPLATE_;\r\n    address public _CUSTOM_MINTABLE_ERC20_TEMPLATE_;\r\n    uint256 public _CREATE_FEE_;\r\n\r\n    // ============ Events ============\r\n    // 0 Std 1 TradeBurn or TradeFee 2 Mintable\r\n    event NewERC20(address erc20, address creator, uint256 erc20Type);\r\n    event ChangeCreateFee(uint256 newFee);\r\n    event Withdraw(address account, uint256 amount);\r\n    event ChangeStdTemplate(address newStdTemplate);\r\n    event ChangeCustomTemplate(address newCustomTemplate);\r\n    event ChangeCustomMintableTemplate(address newCustomMintableTemplate);\r\n\r\n    // ============ Registry ============\r\n    // creator -> token address list\r\n    mapping(address => address[]) public _USER_STD_REGISTRY_;\r\n    mapping(address => address[]) public _USER_CUSTOM_REGISTRY_;\r\n    mapping(address => address[]) public _USER_CUSTOM_MINTABLE_REGISTRY_;\r\n\r\n    // ============ Functions ============\r\n\r\n    fallback() external payable {}\r\n\r\n    receive() external payable {}\r\n\r\n    constructor(\r\n        address cloneFactory,\r\n        address erc20Template,\r\n        address customErc20Template,\r\n        address customMintableErc20Template,\r\n        uint256 createFee\r\n    ) public {\r\n        _CLONE_FACTORY_ = cloneFactory;\r\n        _ERC20_TEMPLATE_ = erc20Template;\r\n        _CUSTOM_ERC20_TEMPLATE_ = customErc20Template;\r\n        _CUSTOM_MINTABLE_ERC20_TEMPLATE_ = customMintableErc20Template;\r\n        _CREATE_FEE_ = createFee;\r\n    }\r\n\r\n    function createStdERC20(\r\n        uint256 totalSupply,\r\n        string memory name,\r\n        string memory symbol,\r\n        uint8 decimals\r\n    ) external payable returns (address newERC20) {\r\n        require(msg.value >= _CREATE_FEE_, \"CREATE_FEE_NOT_ENOUGH\");\r\n        newERC20 = ICloneFactory(_CLONE_FACTORY_).clone(_ERC20_TEMPLATE_);\r\n        IStdERC20(newERC20).init(msg.sender, totalSupply, name, symbol, decimals);\r\n        _USER_STD_REGISTRY_[msg.sender].push(newERC20);\r\n        emit NewERC20(newERC20, msg.sender, 0);\r\n    }\r\n\r\n    function createCustomERC20(\r\n        uint256 totalSupply,\r\n        string memory name,\r\n        string memory symbol,\r\n        uint8 decimals,\r\n        uint256 tradeBurnRatio,\r\n        uint256 tradeFeeRatio,\r\n        address teamAccount\r\n    ) external payable returns (address newCustomERC20) {\r\n        require(msg.value >= _CREATE_FEE_, \"CREATE_FEE_NOT_ENOUGH\");\r\n        newCustomERC20 = ICloneFactory(_CLONE_FACTORY_).clone(_CUSTOM_ERC20_TEMPLATE_);\r\n\r\n        ICustomERC20(newCustomERC20).init(\r\n            msg.sender,\r\n            totalSupply, \r\n            name, \r\n            symbol, \r\n            decimals, \r\n            tradeBurnRatio, \r\n            tradeFeeRatio,\r\n            teamAccount\r\n        );\r\n\r\n        _USER_CUSTOM_REGISTRY_[msg.sender].push(newCustomERC20);\r\n        \r\n        emit NewERC20(newCustomERC20, msg.sender, 1);    \r\n    }\r\n\r\n    function createCustomMintableERC20(\r\n        uint256 initSupply,\r\n        string memory name,\r\n        string memory symbol,\r\n        uint8 decimals,\r\n        uint256 tradeBurnRatio,\r\n        uint256 tradeFeeRatio,\r\n        address teamAccount\r\n    ) external payable returns (address newCustomMintableERC20) {\r\n        require(msg.value >= _CREATE_FEE_, \"CREATE_FEE_NOT_ENOUGH\");\r\n        newCustomMintableERC20 = ICloneFactory(_CLONE_FACTORY_).clone(_CUSTOM_MINTABLE_ERC20_TEMPLATE_);\r\n\r\n        ICustomERC20(newCustomMintableERC20).init(\r\n            msg.sender,\r\n            initSupply, \r\n            name, \r\n            symbol, \r\n            decimals, \r\n            tradeBurnRatio, \r\n            tradeFeeRatio,\r\n            teamAccount\r\n        );\r\n\r\n        _USER_CUSTOM_MINTABLE_REGISTRY_[msg.sender].push(newCustomMintableERC20);\r\n        \r\n        emit NewERC20(newCustomMintableERC20, msg.sender, 2);    \r\n    }\r\n\r\n\r\n    // ============ View ============\r\n    function getTokenByUser(address user) \r\n        external\r\n        view\r\n        returns (address[] memory stds,address[] memory customs,address[] memory mintables)\r\n    {\r\n        return (_USER_STD_REGISTRY_[user], _USER_CUSTOM_REGISTRY_[user], _USER_CUSTOM_MINTABLE_REGISTRY_[user]);\r\n    }\r\n\r\n    // ============ Ownable =============\r\n    function changeCreateFee(uint256 newFee) external onlyOwner {\r\n        _CREATE_FEE_ = newFee;\r\n        emit ChangeCreateFee(newFee);\r\n    }\r\n\r\n    function withdraw() external onlyOwner {\r\n        uint256 amount = address(this).balance;\r\n        msg.sender.transfer(amount);\r\n        emit Withdraw(msg.sender, amount);\r\n    }\r\n\r\n    function updateStdTemplate(address newStdTemplate) external onlyOwner {\r\n        _ERC20_TEMPLATE_ = newStdTemplate;\r\n        emit ChangeStdTemplate(newStdTemplate);\r\n    }\r\n\r\n    function updateCustomTemplate(address newCustomTemplate) external onlyOwner {\r\n        _CUSTOM_ERC20_TEMPLATE_ = newCustomTemplate;\r\n        emit ChangeCustomTemplate(newCustomTemplate);\r\n    }\r\n\r\n    function updateCustomMintableTemplate(address newCustomMintableTemplate) external onlyOwner {\r\n        _CUSTOM_MINTABLE_ERC20_TEMPLATE_ = newCustomMintableTemplate;\r\n        emit ChangeCustomMintableTemplate(newCustomMintableTemplate);\r\n    }\r\n}",
  "sourcePath": "/root/truffle/contracts/erc20factory.sol",
  "compiler": {
    "name": "solc",
    "version": "0.6.9+commit.3e3065ac.Emscripten.clang"
  },
  "schemaVersion": "3.4.13",
  "updatedAt": "2023-05-07T15:07:33.902Z",
  "networkType": "ethereum",
  "devdoc": {
    "author": "DODO Breeder",
    "methods": {},
    "title": "DODO ERC20V2Factory"
  },
  "userdoc": {
    "methods": {},
    "notice": "Help user to create erc20 token"
  }
}